{
  "_format": "hh-sol-artifact-1",
  "contractName": "VectorStore",
  "sourceName": "contracts/VectorStore.sol",
  "abi": [
    {
      "anonymous": false,
      "inputs": [
        {
          "indexed": true,
          "internalType": "bytes32",
          "name": "id",
          "type": "bytes32"
        }
      ],
      "name": "VectorStored",
      "type": "event"
    },
    {
      "anonymous": false,
      "inputs": [
        {
          "indexed": true,
          "internalType": "bytes32",
          "name": "id",
          "type": "bytes32"
        }
      ],
      "name": "VectorUpdated",
      "type": "event"
    },
    {
      "inputs": [
        {
          "internalType": "bytes32",
          "name": "id",
          "type": "bytes32"
        }
      ],
      "name": "getVector",
      "outputs": [
        {
          "internalType": "int256[]",
          "name": "",
          "type": "int256[]"
        }
      ],
      "stateMutability": "view",
      "type": "function"
    },
    {
      "inputs": [
        {
          "internalType": "bytes32",
          "name": "id",
          "type": "bytes32"
        },
        {
          "internalType": "int256[]",
          "name": "values",
          "type": "int256[]"
        }
      ],
      "name": "storeVector",
      "outputs": [],
      "stateMutability": "nonpayable",
      "type": "function"
    },
    {
      "inputs": [
        {
          "internalType": "bytes32",
          "name": "id",
          "type": "bytes32"
        },
        {
          "internalType": "int256[]",
          "name": "values",
          "type": "int256[]"
        }
      ],
      "name": "updateVector",
      "outputs": [],
      "stateMutability": "nonpayable",
      "type": "function"
    },
    {
      "inputs": [
        {
          "internalType": "bytes32",
          "name": "id",
          "type": "bytes32"
        }
      ],
      "name": "vectorExists",
      "outputs": [
        {
          "internalType": "bool",
          "name": "",
          "type": "bool"
        }
      ],
      "stateMutability": "view",
      "type": "function"
    }
  ],
  "bytecode": "0x608060405234801561001057600080fd5b506108a0806100206000396000f3fe608060405234801561001057600080fd5b506004361061004c5760003560e01c806371584d2b14610051578063a789af5f1461006d578063b84f35121461009d578063c4436587146100b9575b600080fd5b61006b600480360381019061006691906105e2565b6100e9565b005b6100876004803603810190610082919061063e565b6101e7565b6040516100949190610686565b60405180910390f35b6100b760048036038101906100b291906105e2565b610213565b005b6100d360048036038101906100ce919061063e565b6102d0565b6040516100e0919061075f565b60405180910390f35b60008083815260200190815260200160002060010160009054906101000a900460ff161561014c576040517f08c379a0000000000000000000000000000000000000000000000000000000008152600401610143906107de565b60405180910390fd5b604051806040016040528082815260200160011515815250600080848152602001908152602001600020600082015181600001908051906020019061019292919061039f565b5060208201518160010160006101000a81548160ff021916908315150217905550905050817f8ae7fe5a88a04b39e4ad44b3ead77d20633d144db83d34e3dc9823509d97eb9960405160405180910390a25050565b600080600083815260200190815260200160002060010160009054906101000a900460ff169050919050565b60008083815260200190815260200160002060010160009054906101000a900460ff16610275576040517f08c379a000000000000000000000000000000000000000000000000000000000815260040161026c9061084a565b60405180910390fd5b80600080848152602001908152602001600020600001908051906020019061029e92919061039f565b50817f1fb12815d9adad89ee267e59a2625633e4ba363367fb8b64c46dbac3e756d98b60405160405180910390a25050565b606060008083815260200190815260200160002060010160009054906101000a900460ff16610334576040517f08c379a000000000000000000000000000000000000000000000000000000000815260040161032b9061084a565b60405180910390fd5b60008083815260200190815260200160002060000180548060200260200160405190810160405280929190818152602001828054801561039357602002820191906000526020600020905b81548152602001906001019080831161037f575b50505050509050919050565b8280548282559060005260206000209081019282156103db579160200282015b828111156103da5782518255916020019190600101906103bf565b5b5090506103e891906103ec565b5090565b5b808211156104055760008160009055506001016103ed565b5090565b6000604051905090565b600080fd5b600080fd5b6000819050919050565b6104308161041d565b811461043b57600080fd5b50565b60008135905061044d81610427565b92915050565b600080fd5b6000601f19601f8301169050919050565b7f4e487b7100000000000000000000000000000000000000000000000000000000600052604160045260246000fd5b6104a182610458565b810181811067ffffffffffffffff821117156104c0576104bf610469565b5b80604052505050565b60006104d3610409565b90506104df8282610498565b919050565b600067ffffffffffffffff8211156104ff576104fe610469565b5b602082029050602081019050919050565b600080fd5b6000819050919050565b61052881610515565b811461053357600080fd5b50565b6000813590506105458161051f565b92915050565b600061055e610559846104e4565b6104c9565b9050808382526020820190506020840283018581111561058157610580610510565b5b835b818110156105aa57806105968882610536565b845260208401935050602081019050610583565b5050509392505050565b600082601f8301126105c9576105c8610453565b5b81356105d984826020860161054b565b91505092915050565b600080604083850312156105f9576105f8610413565b5b60006106078582860161043e565b925050602083013567ffffffffffffffff81111561062857610627610418565b5b610634858286016105b4565b9150509250929050565b60006020828403121561065457610653610413565b5b60006106628482850161043e565b91505092915050565b60008115159050919050565b6106808161066b565b82525050565b600060208201905061069b6000830184610677565b92915050565b600081519050919050565b600082825260208201905092915050565b6000819050602082019050919050565b6106d681610515565b82525050565b60006106e883836106cd565b60208301905092915050565b6000602082019050919050565b600061070c826106a1565b61071681856106ac565b9350610721836106bd565b8060005b8381101561075257815161073988826106dc565b9750610744836106f4565b925050600181019050610725565b5085935050505092915050565b600060208201905081810360008301526107798184610701565b905092915050565b600082825260208201905092915050565b7f566563746f7220616c7265616479206578697374730000000000000000000000600082015250565b60006107c8601583610781565b91506107d382610792565b602082019050919050565b600060208201905081810360008301526107f7816107bb565b9050919050565b7f566563746f7220646f6573206e6f742065786973740000000000000000000000600082015250565b6000610834601583610781565b915061083f826107fe565b602082019050919050565b6000602082019050818103600083015261086381610827565b905091905056fea264697066735822122096a9123f7d30b617a6cd2508e4bae6e447d8e9177c32295599ea6e450e4746f664736f6c63430008130033",
  "linkReferences": {},
  "deployedLinkReferences": {}
}